{
  "contractName": "Kadena",
  "abi": [
    {
      "constant": false,
      "inputs": [],
      "name": "unpause",
      "outputs": [],
      "payable": false,
      "stateMutability": "nonpayable",
      "type": "function"
    },
    {
      "constant": true,
      "inputs": [],
      "name": "paused",
      "outputs": [
        {
          "name": "",
          "type": "bool"
        }
      ],
      "payable": false,
      "stateMutability": "view",
      "type": "function"
    },
    {
      "constant": false,
      "inputs": [],
      "name": "renounceOwnership",
      "outputs": [],
      "payable": false,
      "stateMutability": "nonpayable",
      "type": "function"
    },
    {
      "constant": false,
      "inputs": [],
      "name": "pause",
      "outputs": [],
      "payable": false,
      "stateMutability": "nonpayable",
      "type": "function"
    },
    {
      "constant": true,
      "inputs": [],
      "name": "owner",
      "outputs": [
        {
          "name": "",
          "type": "address"
        }
      ],
      "payable": false,
      "stateMutability": "view",
      "type": "function"
    },
    {
      "constant": false,
      "inputs": [
        {
          "name": "_newOwner",
          "type": "address"
        }
      ],
      "name": "transferOwnership",
      "outputs": [],
      "payable": false,
      "stateMutability": "nonpayable",
      "type": "function"
    },
    {
      "anonymous": false,
      "inputs": [
        {
          "indexed": true,
          "name": "owner",
          "type": "address"
        },
        {
          "indexed": false,
          "name": "hospitalName",
          "type": "string"
        },
        {
          "indexed": false,
          "name": "country",
          "type": "string"
        },
        {
          "indexed": false,
          "name": "city",
          "type": "string"
        },
        {
          "indexed": false,
          "name": "ipfs",
          "type": "string"
        },
        {
          "indexed": false,
          "name": "time",
          "type": "uint256"
        },
        {
          "indexed": false,
          "name": "pending",
          "type": "bool"
        },
        {
          "indexed": false,
          "name": "registered",
          "type": "bool"
        }
      ],
      "name": "RegisterHospital",
      "type": "event"
    },
    {
      "anonymous": false,
      "inputs": [
        {
          "indexed": false,
          "name": "Admin",
          "type": "address"
        },
        {
          "indexed": true,
          "name": "applicant",
          "type": "address"
        },
        {
          "indexed": false,
          "name": "registeredAs",
          "type": "string"
        },
        {
          "indexed": false,
          "name": "status",
          "type": "string"
        },
        {
          "indexed": false,
          "name": "time",
          "type": "uint256"
        },
        {
          "indexed": false,
          "name": "pending",
          "type": "bool"
        },
        {
          "indexed": true,
          "name": "registrationStatus",
          "type": "bool"
        },
        {
          "indexed": false,
          "name": "rating",
          "type": "uint256"
        }
      ],
      "name": "Registration",
      "type": "event"
    },
    {
      "anonymous": false,
      "inputs": [
        {
          "indexed": true,
          "name": "ownerNeed",
          "type": "address"
        },
        {
          "indexed": false,
          "name": "eventId",
          "type": "uint256"
        },
        {
          "indexed": false,
          "name": "hospital",
          "type": "string"
        },
        {
          "indexed": false,
          "name": "title",
          "type": "string"
        },
        {
          "indexed": false,
          "name": "category",
          "type": "string"
        },
        {
          "indexed": false,
          "name": "item",
          "type": "string"
        },
        {
          "indexed": false,
          "name": "amount",
          "type": "uint256"
        },
        {
          "indexed": false,
          "name": "borrow",
          "type": "bool"
        },
        {
          "indexed": false,
          "name": "minimumAmount",
          "type": "uint256"
        },
        {
          "indexed": false,
          "name": "endDate",
          "type": "uint256"
        },
        {
          "indexed": false,
          "name": "ipfs",
          "type": "string"
        }
      ],
      "name": "NeedAHand",
      "type": "event"
    },
    {
      "anonymous": false,
      "inputs": [
        {
          "indexed": true,
          "name": "ownerGive",
          "type": "address"
        },
        {
          "indexed": false,
          "name": "eventId",
          "type": "uint256"
        },
        {
          "indexed": false,
          "name": "hospital",
          "type": "string"
        },
        {
          "indexed": false,
          "name": "title",
          "type": "string"
        },
        {
          "indexed": false,
          "name": "category",
          "type": "string"
        },
        {
          "indexed": false,
          "name": "item",
          "type": "string"
        },
        {
          "indexed": false,
          "name": "amount",
          "type": "uint256"
        },
        {
          "indexed": false,
          "name": "borrow",
          "type": "bool"
        },
        {
          "indexed": false,
          "name": "minimumAmount",
          "type": "uint256"
        },
        {
          "indexed": false,
          "name": "endDate",
          "type": "uint256"
        },
        {
          "indexed": false,
          "name": "ipfs",
          "type": "string"
        }
      ],
      "name": "GiveAHand",
      "type": "event"
    },
    {
      "anonymous": false,
      "inputs": [
        {
          "indexed": true,
          "name": "pledgedBy",
          "type": "address"
        },
        {
          "indexed": false,
          "name": "sender",
          "type": "string"
        },
        {
          "indexed": false,
          "name": "receiver",
          "type": "string"
        },
        {
          "indexed": false,
          "name": "date",
          "type": "uint256"
        },
        {
          "indexed": true,
          "name": "eventId",
          "type": "uint256"
        },
        {
          "indexed": false,
          "name": "item",
          "type": "string"
        },
        {
          "indexed": false,
          "name": "committed",
          "type": "uint256"
        },
        {
          "indexed": true,
          "name": "pledgeTo",
          "type": "address"
        },
        {
          "indexed": false,
          "name": "addedRating",
          "type": "uint256"
        }
      ],
      "name": "Pledged",
      "type": "event"
    },
    {
      "anonymous": false,
      "inputs": [
        {
          "indexed": true,
          "name": "takenBy",
          "type": "address"
        },
        {
          "indexed": false,
          "name": "receiver",
          "type": "string"
        },
        {
          "indexed": false,
          "name": "sender",
          "type": "string"
        },
        {
          "indexed": false,
          "name": "date",
          "type": "uint256"
        },
        {
          "indexed": true,
          "name": "eventId",
          "type": "uint256"
        },
        {
          "indexed": false,
          "name": "item",
          "type": "string"
        },
        {
          "indexed": false,
          "name": "received",
          "type": "uint256"
        },
        {
          "indexed": true,
          "name": "tookFrom",
          "type": "address"
        },
        {
          "indexed": false,
          "name": "addedRating",
          "type": "uint256"
        }
      ],
      "name": "Taken",
      "type": "event"
    },
    {
      "anonymous": false,
      "inputs": [],
      "name": "Pause",
      "type": "event"
    },
    {
      "anonymous": false,
      "inputs": [],
      "name": "Unpause",
      "type": "event"
    },
    {
      "anonymous": false,
      "inputs": [
        {
          "indexed": true,
          "name": "previousOwner",
          "type": "address"
        }
      ],
      "name": "OwnershipRenounced",
      "type": "event"
    },
    {
      "anonymous": false,
      "inputs": [
        {
          "indexed": true,
          "name": "previousOwner",
          "type": "address"
        },
        {
          "indexed": true,
          "name": "newOwner",
          "type": "address"
        }
      ],
      "name": "OwnershipTransferred",
      "type": "event"
    },
    {
      "constant": false,
      "inputs": [
        {
          "name": "_hospitalName",
          "type": "string"
        },
        {
          "name": "_country",
          "type": "string"
        },
        {
          "name": "_city",
          "type": "string"
        },
        {
          "name": "_ipfs",
          "type": "string"
        }
      ],
      "name": "registerHospital",
      "outputs": [],
      "payable": false,
      "stateMutability": "nonpayable",
      "type": "function"
    },
    {
      "constant": false,
      "inputs": [
        {
          "name": "_applicant",
          "type": "address"
        },
        {
          "name": "_accepted",
          "type": "bool"
        }
      ],
      "name": "register",
      "outputs": [],
      "payable": false,
      "stateMutability": "nonpayable",
      "type": "function"
    },
    {
      "constant": true,
      "inputs": [
        {
          "name": "_owner",
          "type": "address"
        }
      ],
      "name": "getHospitalStatus",
      "outputs": [
        {
          "name": "_hospitalName",
          "type": "string"
        },
        {
          "name": "_country",
          "type": "string"
        },
        {
          "name": "_city",
          "type": "string"
        },
        {
          "name": "_ipfs",
          "type": "string"
        },
        {
          "name": "_pending",
          "type": "bool"
        },
        {
          "name": "_registered",
          "type": "bool"
        },
        {
          "name": "_time",
          "type": "uint256"
        },
        {
          "name": "_rating",
          "type": "uint256"
        }
      ],
      "payable": false,
      "stateMutability": "view",
      "type": "function"
    },
    {
      "constant": false,
      "inputs": [
        {
          "name": "_title",
          "type": "string"
        },
        {
          "name": "_category",
          "type": "string"
        },
        {
          "name": "_item",
          "type": "string"
        },
        {
          "name": "_amount",
          "type": "uint256"
        },
        {
          "name": "_borrow",
          "type": "bool"
        },
        {
          "name": "_minimumAmount",
          "type": "uint256"
        },
        {
          "name": "_endDate",
          "type": "uint256"
        },
        {
          "name": "_ipfs",
          "type": "string"
        }
      ],
      "name": "callForHelp",
      "outputs": [],
      "payable": false,
      "stateMutability": "nonpayable",
      "type": "function"
    },
    {
      "constant": false,
      "inputs": [
        {
          "name": "_title",
          "type": "string"
        },
        {
          "name": "_category",
          "type": "string"
        },
        {
          "name": "_item",
          "type": "string"
        },
        {
          "name": "_amount",
          "type": "uint256"
        },
        {
          "name": "_borrow",
          "type": "bool"
        },
        {
          "name": "_minimumAmount",
          "type": "uint256"
        },
        {
          "name": "_endDate",
          "type": "uint256"
        },
        {
          "name": "_ipfs",
          "type": "string"
        }
      ],
      "name": "provideAssistance",
      "outputs": [],
      "payable": false,
      "stateMutability": "nonpayable",
      "type": "function"
    },
    {
      "constant": true,
      "inputs": [
        {
          "name": "_id",
          "type": "uint256"
        }
      ],
      "name": "provideAssistanceDetails",
      "outputs": [
        {
          "name": "title",
          "type": "string"
        },
        {
          "name": "category",
          "type": "string"
        },
        {
          "name": "item",
          "type": "string"
        },
        {
          "name": "amount",
          "type": "uint256"
        },
        {
          "name": "committed",
          "type": "uint256"
        },
        {
          "name": "borrow",
          "type": "bool"
        },
        {
          "name": "minimum",
          "type": "uint256"
        },
        {
          "name": "endDate",
          "type": "uint256"
        },
        {
          "name": "ipfs",
          "type": "string"
        },
        {
          "name": "owner",
          "type": "address"
        }
      ],
      "payable": false,
      "stateMutability": "view",
      "type": "function"
    },
    {
      "constant": true,
      "inputs": [
        {
          "name": "_id",
          "type": "uint256"
        }
      ],
      "name": "callForHelpDetails",
      "outputs": [
        {
          "name": "title",
          "type": "string"
        },
        {
          "name": "category",
          "type": "string"
        },
        {
          "name": "item",
          "type": "string"
        },
        {
          "name": "amount",
          "type": "uint256"
        },
        {
          "name": "committed",
          "type": "uint256"
        },
        {
          "name": "borrow",
          "type": "bool"
        },
        {
          "name": "minumum",
          "type": "uint256"
        },
        {
          "name": "endDate",
          "type": "uint256"
        },
        {
          "name": "ipfs",
          "type": "string"
        },
        {
          "name": "owner",
          "type": "address"
        }
      ],
      "payable": false,
      "stateMutability": "view",
      "type": "function"
    },
    {
      "constant": false,
      "inputs": [
        {
          "name": "_eventId",
          "type": "uint256"
        },
        {
          "name": "_commit",
          "type": "uint256"
        }
      ],
      "name": "pledge",
      "outputs": [],
      "payable": false,
      "stateMutability": "nonpayable",
      "type": "function"
    },
    {
      "constant": false,
      "inputs": [
        {
          "name": "_eventId",
          "type": "uint256"
        },
        {
          "name": "_take",
          "type": "uint256"
        }
      ],
      "name": "take",
      "outputs": [],
      "payable": false,
      "stateMutability": "nonpayable",
      "type": "function"
    },
    {
      "constant": true,
      "inputs": [
        {
          "name": "_owner",
          "type": "address"
        }
      ],
      "name": "needsOf",
      "outputs": [
        {
          "name": "",
          "type": "uint256[]"
        }
      ],
      "payable": false,
      "stateMutability": "view",
      "type": "function"
    },
    {
      "constant": true,
      "inputs": [
        {
          "name": "_owner",
          "type": "address"
        }
      ],
      "name": "assistsOf",
      "outputs": [
        {
          "name": "",
          "type": "uint256[]"
        }
      ],
      "payable": false,
      "stateMutability": "view",
      "type": "function"
    },
    {
      "constant": true,
      "inputs": [],
      "name": "getNeededCount",
      "outputs": [
        {
          "name": "",
          "type": "uint256"
        }
      ],
      "payable": false,
      "stateMutability": "view",
      "type": "function"
    },
    {
      "constant": true,
      "inputs": [],
      "name": "getAssistCount",
      "outputs": [
        {
          "name": "",
          "type": "uint256"
        }
      ],
      "payable": false,
      "stateMutability": "view",
      "type": "function"
    },
    {
      "constant": true,
      "inputs": [],
      "name": "getHospitalCount",
      "outputs": [
        {
          "name": "",
          "type": "uint256"
        }
      ],
      "payable": false,
      "stateMutability": "view",
      "type": "function"
    }
  ],
  "bytecode": "0x608060405260008060146101000a81548160ff021916908315150217905550336000806101000a81548173ffffffffffffffffffffffffffffffffffffffff021916908373ffffffffffffffffffffffffffffffffffffffff160217905550615d018061006d6000396000f300608060405260043610610112576000357c0100000000000000000000000000000000000000000000000000000000900463ffffffff16806306e3e9fb146101175780631dd01a36146101af5780633f4ba83a146101da5780634a9b5d05146101f15780634df6f28d14610435578063509a72e914610570578063591413c3146106d55780635c975abb14610700578063715018a61461072f5780638456cb59146107465780638da5cb5b1461075d57806393368902146107b4578063978b7c02146109f857806397faf4dc14610a2f578063ab01b46914610c53578063d528343914610ca2578063e729779414610d3a578063f2fde38b14610e9f578063fde327be14610ee2578063fe45a81d14610f19575b600080fd5b34801561012357600080fd5b50610158600480360381019080803573ffffffffffffffffffffffffffffffffffffffff169060200190929190505050610f44565b6040518080602001828103825283818151815260200191508051906020019060200280838360005b8381101561019b578082015181840152602081019050610180565b505050509050019250505060405180910390f35b3480156101bb57600080fd5b506101c4610fdb565b6040518082815260200191505060405180910390f35b3480156101e657600080fd5b506101ef610fe8565b005b3480156101fd57600080fd5b5061021c600480360381019080803590602001909291905050506110a6565b604051808060200180602001806020018b81526020018a815260200189151515158152602001888152602001878152602001806020018673ffffffffffffffffffffffffffffffffffffffff1673ffffffffffffffffffffffffffffffffffffffff16815260200185810385528f818151815260200191508051906020019080838360005b838110156102bc5780820151818401526020810190506102a1565b50505050905090810190601f1680156102e95780820380516001836020036101000a031916815260200191505b5085810384528e818151815260200191508051906020019080838360005b83811015610322578082015181840152602081019050610307565b50505050905090810190601f16801561034f5780820380516001836020036101000a031916815260200191505b5085810383528d818151815260200191508051906020019080838360005b8381101561038857808201518184015260208101905061036d565b50505050905090810190601f1680156103b55780820380516001836020036101000a031916815260200191505b50858103825287818151815260200191508051906020019080838360005b838110156103ee5780820151818401526020810190506103d3565b50505050905090810190601f16801561041b5780820380516001836020036101000a031916815260200191505b509e50505050505050505050505050505060405180910390f35b34801561044157600080fd5b5061056e600480360381019080803590602001908201803590602001908080601f0160208091040260200160405190810160405280939291908181526020018383808284378201915050505050509192919290803590602001908201803590602001908080601f0160208091040260200160405190810160405280939291908181526020018383808284378201915050505050509192919290803590602001908201803590602001908080601f0160208091040260200160405190810160405280939291908181526020018383808284378201915050505050509192919290803590602001908201803590602001908080601f0160208091040260200160405190810160405280939291908181526020018383808284378201915050505050509192919290505050611524565b005b34801561057c57600080fd5b506106d3600480360381019080803590602001908201803590602001908080601f0160208091040260200160405190810160405280939291908181526020018383808284378201915050505050509192919290803590602001908201803590602001908080601f0160208091040260200160405190810160405280939291908181526020018383808284378201915050505050509192919290803590602001908201803590602001908080601f0160208091040260200160405190810160405280939291908181526020018383808284378201915050505050509192919290803590602001909291908035151590602001909291908035906020019092919080359060200190929190803590602001908201803590602001908080601f0160208091040260200160405190810160405280939291908181526020018383808284378201915050505050509192919290505050611e30565b005b3480156106e157600080fd5b506106ea612745565b6040518082815260200191505060405180910390f35b34801561070c57600080fd5b50610715612752565b604051808215151515815260200191505060405180910390f35b34801561073b57600080fd5b50610744612765565b005b34801561075257600080fd5b5061075b612867565b005b34801561076957600080fd5b50610772612927565b604051808273ffffffffffffffffffffffffffffffffffffffff1673ffffffffffffffffffffffffffffffffffffffff16815260200191505060405180910390f35b3480156107c057600080fd5b506107df6004803603810190808035906020019092919050505061294c565b604051808060200180602001806020018b81526020018a815260200189151515158152602001888152602001878152602001806020018673ffffffffffffffffffffffffffffffffffffffff1673ffffffffffffffffffffffffffffffffffffffff16815260200185810385528f818151815260200191508051906020019080838360005b8381101561087f578082015181840152602081019050610864565b50505050905090810190601f1680156108ac5780820380516001836020036101000a031916815260200191505b5085810384528e818151815260200191508051906020019080838360005b838110156108e55780820151818401526020810190506108ca565b50505050905090810190601f1680156109125780820380516001836020036101000a031916815260200191505b5085810383528d818151815260200191508051906020019080838360005b8381101561094b578082015181840152602081019050610930565b50505050905090810190601f1680156109785780820380516001836020036101000a031916815260200191505b50858103825287818151815260200191508051906020019080838360005b838110156109b1578082015181840152602081019050610996565b50505050905090810190601f1680156109de5780820380516001836020036101000a031916815260200191505b509e50505050505050505050505050505060405180910390f35b348015610a0457600080fd5b50610a2d6004803603810190808035906020019092919080359060200190929190505050612dca565b005b348015610a3b57600080fd5b50610a70600480360381019080803573ffffffffffffffffffffffffffffffffffffffff16906020019092919050505061381d565b6040518080602001806020018060200180602001891515151581526020018815151515815260200187815260200186815260200185810385528d818151815260200191508051906020019080838360005b83811015610adc578082015181840152602081019050610ac1565b50505050905090810190601f168015610b095780820380516001836020036101000a031916815260200191505b5085810384528c818151815260200191508051906020019080838360005b83811015610b42578082015181840152602081019050610b27565b50505050905090810190601f168015610b6f5780820380516001836020036101000a031916815260200191505b5085810383528b818151815260200191508051906020019080838360005b83811015610ba8578082015181840152602081019050610b8d565b50505050905090810190601f168015610bd55780820380516001836020036101000a031916815260200191505b5085810382528a818151815260200191508051906020019080838360005b83811015610c0e578082015181840152602081019050610bf3565b50505050905090810190601f168015610c3b5780820380516001836020036101000a031916815260200191505b509c5050505050505050505050505060405180910390f35b348015610c5f57600080fd5b50610ca0600480360381019080803573ffffffffffffffffffffffffffffffffffffffff169060200190929190803515159060200190929190505050613c9b565b005b348015610cae57600080fd5b50610ce3600480360381019080803573ffffffffffffffffffffffffffffffffffffffff1690602001909291905050506144b1565b6040518080602001828103825283818151815260200191508051906020019060200280838360005b83811015610d26578082015181840152602081019050610d0b565b505050509050019250505060405180910390f35b348015610d4657600080fd5b50610e9d600480360381019080803590602001908201803590602001908080601f0160208091040260200160405190810160405280939291908181526020018383808284378201915050505050509192919290803590602001908201803590602001908080601f0160208091040260200160405190810160405280939291908181526020018383808284378201915050505050509192919290803590602001908201803590602001908080601f0160208091040260200160405190810160405280939291908181526020018383808284378201915050505050509192919290803590602001909291908035151590602001909291908035906020019092919080359060200190929190803590602001908201803590602001908080601f0160208091040260200160405190810160405280939291908181526020018383808284378201915050505050509192919290505050614548565b005b348015610eab57600080fd5b50610ee0600480360381019080803573ffffffffffffffffffffffffffffffffffffffff169060200190929190505050614e56565b005b348015610eee57600080fd5b50610f176004803603810190808035906020019092919080359060200190929190505050614ebd565b005b348015610f2557600080fd5b50610f2e615920565b6040518082815260200191505060405180910390f35b6060600460008373ffffffffffffffffffffffffffffffffffffffff1673ffffffffffffffffffffffffffffffffffffffff168152602001908152602001600020805480602002602001604051908101604052809291908181526020018280548015610fcf57602002820191906000526020600020905b815481526020019060010190808311610fbb575b50505050509050919050565b6000600380549050905090565b6000809054906101000a900473ffffffffffffffffffffffffffffffffffffffff1673ffffffffffffffffffffffffffffffffffffffff163373ffffffffffffffffffffffffffffffffffffffff1614151561104357600080fd5b600060149054906101000a900460ff16151561105e57600080fd5b60008060146101000a81548160ff0219169083151502179055507f7805862f689e2f13df9f062ff482ad3ad112aca9e0847911ed832e158c525b3360405160405180910390a1565b60608060606000806000806000606060006110bf615a5c565b6002805490508c1015156110d257600080fd5b60028c8154811015156110e157fe5b90600052602060002090600b020161016060405190810160405290816000820160009054906101000a900473ffffffffffffffffffffffffffffffffffffffff1673ffffffffffffffffffffffffffffffffffffffff1673ffffffffffffffffffffffffffffffffffffffff168152602001600182018054600181600116156101000203166002900480601f0160208091040260200160405190810160405280929190818152602001828054600181600116156101000203166002900480156111eb5780601f106111c0576101008083540402835291602001916111eb565b820191906000526020600020905b8154815290600101906020018083116111ce57829003601f168201915b50505050508152602001600282018054600181600116156101000203166002900480601f01602080910402602001604051908101604052809291908181526020018280546001816001161561010002031660029004801561128d5780601f106112625761010080835404028352916020019161128d565b820191906000526020600020905b81548152906001019060200180831161127057829003601f168201915b50505050508152602001600382018054600181600116156101000203166002900480601f01602080910402602001604051908101604052809291908181526020018280546001816001161561010002031660029004801561132f5780601f106113045761010080835404028352916020019161132f565b820191906000526020600020905b81548152906001019060200180831161131257829003601f168201915b50505050508152602001600482018054600181600116156101000203166002900480601f0160208091040260200160405190810160405280929190818152602001828054600181600116156101000203166002900480156113d15780601f106113a6576101008083540402835291602001916113d1565b820191906000526020600020905b8154815290600101906020018083116113b457829003601f168201915b5050505050815260200160058201548152602001600682015481526020016007820160009054906101000a900460ff161515151581526020016008820154815260200160098201548152602001600a82018054600181600116156101000203166002900480601f0160208091040260200160405190810160405280929190818152602001828054600181600116156101000203166002900480156114b65780601f1061148b576101008083540402835291602001916114b6565b820191906000526020600020905b81548152906001019060200180831161149957829003601f168201915b50505050508152505090508060400151816060015182608001518360a001518460c001518560e0015186610100015187610120015188610140015189600001518999508898508797508191509a509a509a509a509a509a509a509a509a509a50509193959799509193959799565b61152c615acf565b60008060149054906101000a900460ff1615151561154957600080fd5b60001515600660003373ffffffffffffffffffffffffffffffffffffffff1673ffffffffffffffffffffffffffffffffffffffff16815260200190815260200160002060070160019054906101000a900460ff1615151480156115ff575060001515600660003373ffffffffffffffffffffffffffffffffffffffff1673ffffffffffffffffffffffffffffffffffffffff16815260200190815260200160002060070160009054906101000a900460ff161515145b1515611699576040517f08c379a000000000000000000000000000000000000000000000000000000000815260040180806020018281038252602f8152602001807f596f75206172652052656769737465726564206f7220686176652070656e646981526020017f6e6720726567697374726174696f6e000000000000000000000000000000000081525060400191505060405180910390fd5b610140604051908101604052803373ffffffffffffffffffffffffffffffffffffffff1681526020018781526020018681526020018581526020018481526020016040805190810160405280600c81526020017f556e7265676973746572656400000000000000000000000000000000000000008152508152602001428152602001600115158152602001600015158152602001600081525091506118a4600180849080600181540180825580915050906001820390600052602060002090600902016000909192909190915060008201518160000160006101000a81548173ffffffffffffffffffffffffffffffffffffffff021916908373ffffffffffffffffffffffffffffffffffffffff16021790555060208201518160010190805190602001906117c9929190615b3d565b5060408201518160020190805190602001906117e6929190615b3d565b506060820151816003019080519060200190611803929190615b3d565b506080820151816004019080519060200190611820929190615b3d565b5060a082015181600501908051906020019061183d929190615b3d565b5060c0820151816006015560e08201518160070160006101000a81548160ff0219169083151502179055506101008201518160070160016101000a81548160ff0219169083151502179055506101208201518160080155505061592d90919063ffffffff16565b905033600660003373ffffffffffffffffffffffffffffffffffffffff1673ffffffffffffffffffffffffffffffffffffffff16815260200190815260200160002060000160006101000a81548173ffffffffffffffffffffffffffffffffffffffff021916908373ffffffffffffffffffffffffffffffffffffffff16021790555085600660003373ffffffffffffffffffffffffffffffffffffffff1673ffffffffffffffffffffffffffffffffffffffff168152602001908152602001600020600101908051906020019061197d929190615bbd565b5084600660003373ffffffffffffffffffffffffffffffffffffffff1673ffffffffffffffffffffffffffffffffffffffff16815260200190815260200160002060020190805190602001906119d4929190615bbd565b5083600660003373ffffffffffffffffffffffffffffffffffffffff1673ffffffffffffffffffffffffffffffffffffffff1681526020019081526020016000206003019080519060200190611a2b929190615bbd565b5082600660003373ffffffffffffffffffffffffffffffffffffffff1673ffffffffffffffffffffffffffffffffffffffff1681526020019081526020016000206004019080519060200190611a82929190615bbd565b506040805190810160405280600c81526020017f556e726567697374657265640000000000000000000000000000000000000000815250600660003373ffffffffffffffffffffffffffffffffffffffff1673ffffffffffffffffffffffffffffffffffffffff1681526020019081526020016000206005019080519060200190611b0e929190615bbd565b5042600660003373ffffffffffffffffffffffffffffffffffffffff1673ffffffffffffffffffffffffffffffffffffffff168152602001908152602001600020600601819055506001600660003373ffffffffffffffffffffffffffffffffffffffff1673ffffffffffffffffffffffffffffffffffffffff16815260200190815260200160002060070160006101000a81548160ff0219169083151502179055506000600660003373ffffffffffffffffffffffffffffffffffffffff1673ffffffffffffffffffffffffffffffffffffffff16815260200190815260200160002060070160016101000a81548160ff0219169083151502179055503373ffffffffffffffffffffffffffffffffffffffff167fbb24b8861d3df0f8e8a154f917644dddbea482561f05f142a0e3d9f177c2bdb58787878742600160006040518080602001806020018060200180602001888152602001871515151581526020018615151515815260200185810385528c818151815260200191508051906020019080838360005b83811015611cb3578082015181840152602081019050611c98565b50505050905090810190601f168015611ce05780820380516001836020036101000a031916815260200191505b5085810384528b818151815260200191508051906020019080838360005b83811015611d19578082015181840152602081019050611cfe565b50505050905090810190601f168015611d465780820380516001836020036101000a031916815260200191505b5085810383528a818151815260200191508051906020019080838360005b83811015611d7f578082015181840152602081019050611d64565b50505050905090810190601f168015611dac5780820380516001836020036101000a031916815260200191505b50858103825289818151815260200191508051906020019080838360005b83811015611de5578082015181840152602081019050611dca565b50505050905090810190601f168015611e125780820380516001836020036101000a031916815260200191505b509b50505050505050505050505060405180910390a2505050505050565b611e38615a5c565b600080600060149054906101000a900460ff16151515611e5757600080fd5b60011515600660003373ffffffffffffffffffffffffffffffffffffffff1673ffffffffffffffffffffffffffffffffffffffff16815260200190815260200160002060070160019054906101000a900460ff161515148015611f0d575060001515600660003373ffffffffffffffffffffffffffffffffffffffff1673ffffffffffffffffffffffffffffffffffffffff16815260200190815260200160002060070160009054906101000a900460ff161515145b1515611f81576040517f08c379a00000000000000000000000000000000000000000000000000000000081526004018080602001828103825260168152602001807f596f7520617265204e6f7420526567697374657265640000000000000000000081525060200191505060405180910390fd5b8442101515611f8f57600080fd5b6014600660003373ffffffffffffffffffffffffffffffffffffffff1673ffffffffffffffffffffffffffffffffffffffff16815260200190815260200160002060080154111515611fe057600080fd5b600088118015611ff05750878611155b1515611ffb57600080fd5b610160604051908101604052803373ffffffffffffffffffffffffffffffffffffffff168152602001600660003373ffffffffffffffffffffffffffffffffffffffff1673ffffffffffffffffffffffffffffffffffffffff1681526020019081526020016000206001018054600181600116156101000203166002900480601f0160208091040260200160405190810160405280929190818152602001828054600181600116156101000203166002900480156120fa5780601f106120cf576101008083540402835291602001916120fa565b820191906000526020600020905b8154815290600101906020018083116120dd57829003601f168201915b505050505081526020018c81526020018b81526020018a81526020018981526020016000815260200188151581526020018781526020018681526020018581525092506122a360016002859080600181540180825580915050906001820390600052602060002090600b02016000909192909190915060008201518160000160006101000a81548173ffffffffffffffffffffffffffffffffffffffff021916908373ffffffffffffffffffffffffffffffffffffffff16021790555060208201518160010190805190602001906121d3929190615b3d565b5060408201518160020190805190602001906121f0929190615b3d565b50606082015181600301908051906020019061220d929190615b3d565b50608082015181600401908051906020019061222a929190615b3d565b5060a0820151816005015560c0820151816006015560e08201518160070160006101000a81548160ff0219169083151502179055506101008201518160080155610120820151816009015561014082015181600a019080519060200190612292929190615b3d565b50505061592d90919063ffffffff16565b9150600460003373ffffffffffffffffffffffffffffffffffffffff1673ffffffffffffffffffffffffffffffffffffffff1681526020019081526020016000208290806001815401808255809150509060018203906000526020600020016000909192909190915055506019600660003373ffffffffffffffffffffffffffffffffffffffff1673ffffffffffffffffffffffffffffffffffffffff1681526020019081526020016000206008015410151561236357600590506123ac565b6014600660003373ffffffffffffffffffffffffffffffffffffffff1673ffffffffffffffffffffffffffffffffffffffff168152602001908152602001600020600801540390505b61240181600660003373ffffffffffffffffffffffffffffffffffffffff1673ffffffffffffffffffffffffffffffffffffffff1681526020019081526020016000206008015461592d90919063ffffffff16565b600660003373ffffffffffffffffffffffffffffffffffffffff1673ffffffffffffffffffffffffffffffffffffffff168152602001908152602001600020600801819055503373ffffffffffffffffffffffffffffffffffffffff167f4e41d15a66a7b28be004404a03eccd7461a4f7ba09af6a22cd011b1c34b9bd7a83600660003373ffffffffffffffffffffffffffffffffffffffff1673ffffffffffffffffffffffffffffffffffffffff1681526020019081526020016000206001018e8e8e8e8e8e8e8e604051808b8152602001806020018060200180602001806020018a8152602001891515151581526020018881526020018781526020018060200186810386528f8181546001816001161561010002031660029004815260200191508054600181600116156101000203166002900480156125855780601f1061255a57610100808354040283529160200191612585565b820191906000526020600020905b81548152906001019060200180831161256857829003601f168201915b505086810385528e818151815260200191508051906020019080838360005b838110156125bf5780820151818401526020810190506125a4565b50505050905090810190601f1680156125ec5780820380516001836020036101000a031916815260200191505b5086810384528d818151815260200191508051906020019080838360005b8381101561262557808201518184015260208101905061260a565b50505050905090810190601f1680156126525780820380516001836020036101000a031916815260200191505b5086810383528c818151815260200191508051906020019080838360005b8381101561268b578082015181840152602081019050612670565b50505050905090810190601f1680156126b85780820380516001836020036101000a031916815260200191505b50868103825287818151815260200191508051906020019080838360005b838110156126f15780820151818401526020810190506126d6565b50505050905090810190601f16801561271e5780820380516001836020036101000a031916815260200191505b509f5050505050505050505050505050505060405180910390a25050505050505050505050565b6000600280549050905090565b600060149054906101000a900460ff1681565b6000809054906101000a900473ffffffffffffffffffffffffffffffffffffffff1673ffffffffffffffffffffffffffffffffffffffff163373ffffffffffffffffffffffffffffffffffffffff161415156127c057600080fd5b6000809054906101000a900473ffffffffffffffffffffffffffffffffffffffff1673ffffffffffffffffffffffffffffffffffffffff167ff8df31144d9c2f0f6b59d69b8b98abd5459d07f2742c4df920b25aae33c6482060405160405180910390a260008060006101000a81548173ffffffffffffffffffffffffffffffffffffffff021916908373ffffffffffffffffffffffffffffffffffffffff160217905550565b6000809054906101000a900473ffffffffffffffffffffffffffffffffffffffff1673ffffffffffffffffffffffffffffffffffffffff163373ffffffffffffffffffffffffffffffffffffffff161415156128c257600080fd5b600060149054906101000a900460ff161515156128de57600080fd5b6001600060146101000a81548160ff0219169083151502179055507f6985a02210a168e66602d3235cb6db0e70f92b3ba4d376a33c0f3d9434bff62560405160405180910390a1565b6000809054906101000a900473ffffffffffffffffffffffffffffffffffffffff1681565b6060806060600080600080600060606000612965615c3d565b6003805490508c10151561297857600080fd5b60038c81548110151561298757fe5b90600052602060002090600b020161016060405190810160405290816000820160009054906101000a900473ffffffffffffffffffffffffffffffffffffffff1673ffffffffffffffffffffffffffffffffffffffff1673ffffffffffffffffffffffffffffffffffffffff168152602001600182018054600181600116156101000203166002900480601f016020809104026020016040519081016040528092919081815260200182805460018160011615610100020316600290048015612a915780601f10612a6657610100808354040283529160200191612a91565b820191906000526020600020905b815481529060010190602001808311612a7457829003601f168201915b50505050508152602001600282018054600181600116156101000203166002900480601f016020809104026020016040519081016040528092919081815260200182805460018160011615610100020316600290048015612b335780601f10612b0857610100808354040283529160200191612b33565b820191906000526020600020905b815481529060010190602001808311612b1657829003601f168201915b50505050508152602001600382018054600181600116156101000203166002900480601f016020809104026020016040519081016040528092919081815260200182805460018160011615610100020316600290048015612bd55780601f10612baa57610100808354040283529160200191612bd5565b820191906000526020600020905b815481529060010190602001808311612bb857829003601f168201915b50505050508152602001600482018054600181600116156101000203166002900480601f016020809104026020016040519081016040528092919081815260200182805460018160011615610100020316600290048015612c775780601f10612c4c57610100808354040283529160200191612c77565b820191906000526020600020905b815481529060010190602001808311612c5a57829003601f168201915b5050505050815260200160058201548152602001600682015481526020016007820160009054906101000a900460ff161515151581526020016008820154815260200160098201548152602001600a82018054600181600116156101000203166002900480601f016020809104026020016040519081016040528092919081815260200182805460018160011615610100020316600290048015612d5c5780601f10612d3157610100808354040283529160200191612d5c565b820191906000526020600020905b815481529060010190602001808311612d3f57829003601f168201915b50505050508152505090508060400151816060015182608001518360a001518460c001518560e0015186610100015187610120015188610140015189600001518999508898508797508191509a509a509a509a509a509a509a509a509a509a50509193959799509193959799565b612dd2615c3d565b60008060149054906101000a900460ff16151515612def57600080fd5b60038054905084101515612e0257600080fd5b600384815481101515612e1157fe5b90600052602060002090600b020161016060405190810160405290816000820160009054906101000a900473ffffffffffffffffffffffffffffffffffffffff1673ffffffffffffffffffffffffffffffffffffffff1673ffffffffffffffffffffffffffffffffffffffff168152602001600182018054600181600116156101000203166002900480601f016020809104026020016040519081016040528092919081815260200182805460018160011615610100020316600290048015612f1b5780601f10612ef057610100808354040283529160200191612f1b565b820191906000526020600020905b815481529060010190602001808311612efe57829003601f168201915b50505050508152602001600282018054600181600116156101000203166002900480601f016020809104026020016040519081016040528092919081815260200182805460018160011615610100020316600290048015612fbd5780601f10612f9257610100808354040283529160200191612fbd565b820191906000526020600020905b815481529060010190602001808311612fa057829003601f168201915b50505050508152602001600382018054600181600116156101000203166002900480601f01602080910402602001604051908101604052809291908181526020018280546001816001161561010002031660029004801561305f5780601f106130345761010080835404028352916020019161305f565b820191906000526020600020905b81548152906001019060200180831161304257829003601f168201915b50505050508152602001600482018054600181600116156101000203166002900480601f0160208091040260200160405190810160405280929190818152602001828054600181600116156101000203166002900480156131015780601f106130d657610100808354040283529160200191613101565b820191906000526020600020905b8154815290600101906020018083116130e457829003601f168201915b5050505050815260200160058201548152602001600682015481526020016007820160009054906101000a900460ff161515151581526020016008820154815260200160098201548152602001600a82018054600181600116156101000203166002900480601f0160208091040260200160405190810160405280929190818152602001828054600181600116156101000203166002900480156131e65780601f106131bb576101008083540402835291602001916131e6565b820191906000526020600020905b8154815290600101906020018083116131c957829003601f168201915b5050505050815250509150600a600660003373ffffffffffffffffffffffffffffffffffffffff1673ffffffffffffffffffffffffffffffffffffffff1681526020019081526020016000206008015411151561324257600080fd5b600083118015613272575060038481548110151561325c57fe5b90600052602060002090600b0201600801548310155b801561329e575060038481548110151561328857fe5b90600052602060002090600b0201600601548311155b15156132a957600080fd5b6003848154811015156132b857fe5b90600052602060002090600b020160000160009054906101000a900473ffffffffffffffffffffffffffffffffffffffff1673ffffffffffffffffffffffffffffffffffffffff163373ffffffffffffffffffffffffffffffffffffffff161415151561332457600080fd5b4260038581548110151561333457fe5b90600052602060002090600b02016009015411151561335257600080fd5b6133858360038681548110151561336557fe5b90600052602060002090600b02016006015461592d90919063ffffffff16565b60038581548110151561339457fe5b90600052602060002090600b020160060181905550600d600660003373ffffffffffffffffffffffffffffffffffffffff1673ffffffffffffffffffffffffffffffffffffffff168152602001908152602001600020600801541015156133fe5760039050613447565b600a600660003373ffffffffffffffffffffffffffffffffffffffff1673ffffffffffffffffffffffffffffffffffffffff168152602001908152602001600020600801540390505b61349c81600660003373ffffffffffffffffffffffffffffffffffffffff1673ffffffffffffffffffffffffffffffffffffffff1681526020019081526020016000206008015461592d90919063ffffffff16565b600660003373ffffffffffffffffffffffffffffffffffffffff1673ffffffffffffffffffffffffffffffffffffffff168152602001908152602001600020600801819055506003848154811015156134f157fe5b90600052602060002090600b020160000160009054906101000a900473ffffffffffffffffffffffffffffffffffffffff1673ffffffffffffffffffffffffffffffffffffffff16843373ffffffffffffffffffffffffffffffffffffffff167fb44e4df960c4bf63d6af9c787a8b5b68aaa4aba062b67a248aba36445387b2f4600660003373ffffffffffffffffffffffffffffffffffffffff1673ffffffffffffffffffffffffffffffffffffffff1681526020019081526020016000206001016006600060038b8154811015156135c757fe5b90600052602060002090600b020160000160009054906101000a900473ffffffffffffffffffffffffffffffffffffffff1673ffffffffffffffffffffffffffffffffffffffff1673ffffffffffffffffffffffffffffffffffffffff1681526020019081526020016000206001014260038b81548110151561364657fe5b90600052602060002090600b02016004018a896040518080602001806020018781526020018060200186815260200185815260200184810384528a8181546001816001161561010002031660029004815260200191508054600181600116156101000203166002900480156136fc5780601f106136d1576101008083540402835291602001916136fc565b820191906000526020600020905b8154815290600101906020018083116136df57829003601f168201915b505084810383528981815460018160011615610100020316600290048152602001915080546001816001161561010002031660029004801561377f5780601f106137545761010080835404028352916020019161377f565b820191906000526020600020905b81548152906001019060200180831161376257829003601f168201915b50508481038252878181546001816001161561010002031660029004815260200191508054600181600116156101000203166002900480156138025780601f106137d757610100808354040283529160200191613802565b820191906000526020600020905b8154815290600101906020018083116137e557829003601f168201915b5050995050505050505050505060405180910390a450505050565b606080606080600080600080613831615acf565b600660008b73ffffffffffffffffffffffffffffffffffffffff1673ffffffffffffffffffffffffffffffffffffffff16815260200190815260200160002061014060405190810160405290816000820160009054906101000a900473ffffffffffffffffffffffffffffffffffffffff1673ffffffffffffffffffffffffffffffffffffffff1673ffffffffffffffffffffffffffffffffffffffff168152602001600182018054600181600116156101000203166002900480601f01602080910402602001604051908101604052809291908181526020018280546001816001161561010002031660029004801561396c5780601f106139415761010080835404028352916020019161396c565b820191906000526020600020905b81548152906001019060200180831161394f57829003601f168201915b50505050508152602001600282018054600181600116156101000203166002900480601f016020809104026020016040519081016040528092919081815260200182805460018160011615610100020316600290048015613a0e5780601f106139e357610100808354040283529160200191613a0e565b820191906000526020600020905b8154815290600101906020018083116139f157829003601f168201915b50505050508152602001600382018054600181600116156101000203166002900480601f016020809104026020016040519081016040528092919081815260200182805460018160011615610100020316600290048015613ab05780601f10613a8557610100808354040283529160200191613ab0565b820191906000526020600020905b815481529060010190602001808311613a9357829003601f168201915b50505050508152602001600482018054600181600116156101000203166002900480601f016020809104026020016040519081016040528092919081815260200182805460018160011615610100020316600290048015613b525780601f10613b2757610100808354040283529160200191613b52565b820191906000526020600020905b815481529060010190602001808311613b3557829003601f168201915b50505050508152602001600582018054600181600116156101000203166002900480601f016020809104026020016040519081016040528092919081815260200182805460018160011615610100020316600290048015613bf45780601f10613bc957610100808354040283529160200191613bf4565b820191906000526020600020905b815481529060010190602001808311613bd757829003601f168201915b50505050508152602001600682015481526020016007820160009054906101000a900460ff161515151581526020016007820160019054906101000a900460ff16151515158152602001600882015481525050905080602001518160400151826060015183608001518460e001518561010001518660c001518761012001518797508696508595508494509850985098509850985098509850985050919395975091939597565b6000809054906101000a900473ffffffffffffffffffffffffffffffffffffffff1673ffffffffffffffffffffffffffffffffffffffff163373ffffffffffffffffffffffffffffffffffffffff16141515613cf657600080fd5b600060149054906101000a900460ff16151515613d1257600080fd5b600660008373ffffffffffffffffffffffffffffffffffffffff1673ffffffffffffffffffffffffffffffffffffffff16815260200190815260200160002060070160009054906101000a900460ff161515613dd6576040517f08c379a00000000000000000000000000000000000000000000000000000000081526004018080602001828103825260128152602001807f537461747573206e6f742050656e64696e67000000000000000000000000000081525060200191505060405180910390fd5b8015613fb2576040805190810160405280600a81526020017f5265676973746572656400000000000000000000000000000000000000000000815250600660008473ffffffffffffffffffffffffffffffffffffffff1673ffffffffffffffffffffffffffffffffffffffff1681526020019081526020016000206005019080519060200190613e67929190615bbd565b5042600660008473ffffffffffffffffffffffffffffffffffffffff1673ffffffffffffffffffffffffffffffffffffffff168152602001908152602001600020600601819055506000600660008473ffffffffffffffffffffffffffffffffffffffff1673ffffffffffffffffffffffffffffffffffffffff16815260200190815260200160002060070160006101000a81548160ff0219169083151502179055506001600660008473ffffffffffffffffffffffffffffffffffffffff1673ffffffffffffffffffffffffffffffffffffffff16815260200190815260200160002060070160016101000a81548160ff0219169083151502179055506023600660008473ffffffffffffffffffffffffffffffffffffffff1673ffffffffffffffffffffffffffffffffffffffff1681526020019081526020016000206008018190555061413c565b6040805190810160405280600881526020017f52656a6563746564000000000000000000000000000000000000000000000000815250600660008473ffffffffffffffffffffffffffffffffffffffff1673ffffffffffffffffffffffffffffffffffffffff168152602001908152602001600020600501908051906020019061403d929190615bbd565b5042600660008473ffffffffffffffffffffffffffffffffffffffff1673ffffffffffffffffffffffffffffffffffffffff168152602001908152602001600020600601819055506000600660008473ffffffffffffffffffffffffffffffffffffffff1673ffffffffffffffffffffffffffffffffffffffff16815260200190815260200160002060070160006101000a81548160ff0219169083151502179055506000600660008473ffffffffffffffffffffffffffffffffffffffff1673ffffffffffffffffffffffffffffffffffffffff16815260200190815260200160002060070160016101000a81548160ff0219169083151502179055505b600660008373ffffffffffffffffffffffffffffffffffffffff1673ffffffffffffffffffffffffffffffffffffffff16815260200190815260200160002060070160019054906101000a900460ff161515600660008473ffffffffffffffffffffffffffffffffffffffff1673ffffffffffffffffffffffffffffffffffffffff16815260200190815260200160002060000160009054906101000a900473ffffffffffffffffffffffffffffffffffffffff1673ffffffffffffffffffffffffffffffffffffffff167fba36970dcbe5845620db5e75839cf6e99d4c1ee1341d0f4499e16fdf1fa2641d33600660008773ffffffffffffffffffffffffffffffffffffffff1673ffffffffffffffffffffffffffffffffffffffff168152602001908152602001600020600101600660008873ffffffffffffffffffffffffffffffffffffffff1673ffffffffffffffffffffffffffffffffffffffff16815260200190815260200160002060050142600660008a73ffffffffffffffffffffffffffffffffffffffff1673ffffffffffffffffffffffffffffffffffffffff16815260200190815260200160002060070160009054906101000a900460ff16600660008b73ffffffffffffffffffffffffffffffffffffffff1673ffffffffffffffffffffffffffffffffffffffff16815260200190815260200160002060080154604051808773ffffffffffffffffffffffffffffffffffffffff1673ffffffffffffffffffffffffffffffffffffffff1681526020018060200180602001868152602001851515151581526020018481526020018381038352888181546001816001161561010002031660029004815260200191508054600181600116156101000203166002900480156144165780601f106143eb57610100808354040283529160200191614416565b820191906000526020600020905b8154815290600101906020018083116143f957829003601f168201915b50508381038252878181546001816001161561010002031660029004815260200191508054600181600116156101000203166002900480156144995780601f1061446e57610100808354040283529160200191614499565b820191906000526020600020905b81548152906001019060200180831161447c57829003601f168201915b50509850505050505050505060405180910390a35050565b6060600560008373ffffffffffffffffffffffffffffffffffffffff1673ffffffffffffffffffffffffffffffffffffffff16815260200190815260200160002080548060200260200160405190810160405280929190818152602001828054801561453c57602002820191906000526020600020905b815481526020019060010190808311614528575b50505050509050919050565b614550615c3d565b600080600060149054906101000a900460ff1615151561456f57600080fd5b60011515600660003373ffffffffffffffffffffffffffffffffffffffff1673ffffffffffffffffffffffffffffffffffffffff16815260200190815260200160002060070160019054906101000a900460ff161515148015614625575060001515600660003373ffffffffffffffffffffffffffffffffffffffff1673ffffffffffffffffffffffffffffffffffffffff16815260200190815260200160002060070160009054906101000a900460ff161515145b1515614699576040517f08c379a00000000000000000000000000000000000000000000000000000000081526004018080602001828103825260168152602001807f596f7520617265204e6f7420526567697374657265640000000000000000000081525060200191505060405180910390fd5b84421015156146a757600080fd5b6000881180156146b75750878611155b15156146c257600080fd5b610160604051908101604052803373ffffffffffffffffffffffffffffffffffffffff168152602001600660003373ffffffffffffffffffffffffffffffffffffffff1673ffffffffffffffffffffffffffffffffffffffff1681526020019081526020016000206001018054600181600116156101000203166002900480601f0160208091040260200160405190810160405280929190818152602001828054600181600116156101000203166002900480156147c15780601f10614796576101008083540402835291602001916147c1565b820191906000526020600020905b8154815290600101906020018083116147a457829003601f168201915b505050505081526020018c81526020018b81526020018a8152602001898152602001898152602001881515815260200187815260200186815260200185815250925061496960016003859080600181540180825580915050906001820390600052602060002090600b02016000909192909190915060008201518160000160006101000a81548173ffffffffffffffffffffffffffffffffffffffff021916908373ffffffffffffffffffffffffffffffffffffffff1602179055506020820151816001019080519060200190614899929190615b3d565b5060408201518160020190805190602001906148b6929190615b3d565b5060608201518160030190805190602001906148d3929190615b3d565b5060808201518160040190805190602001906148f0929190615b3d565b5060a0820151816005015560c0820151816006015560e08201518160070160006101000a81548160ff0219169083151502179055506101008201518160080155610120820151816009015561014082015181600a019080519060200190614958929190615b3d565b50505061592d90919063ffffffff16565b9150600560003373ffffffffffffffffffffffffffffffffffffffff1673ffffffffffffffffffffffffffffffffffffffff1681526020019081526020016000208290806001815401808255809150509060018203906000526020600020016000909192909190915055506037600660003373ffffffffffffffffffffffffffffffffffffffff1673ffffffffffffffffffffffffffffffffffffffff168152602001908152602001600020600801541015614a285760059050614a71565b600660003373ffffffffffffffffffffffffffffffffffffffff1673ffffffffffffffffffffffffffffffffffffffff16815260200190815260200160002060080154603c0390505b603c600660003373ffffffffffffffffffffffffffffffffffffffff1673ffffffffffffffffffffffffffffffffffffffff168152602001908152602001600020600801541015614b5857614b1181600660003373ffffffffffffffffffffffffffffffffffffffff1673ffffffffffffffffffffffffffffffffffffffff1681526020019081526020016000206008015461594690919063ffffffff16565b600660003373ffffffffffffffffffffffffffffffffffffffff1673ffffffffffffffffffffffffffffffffffffffff168152602001908152602001600020600801819055505b3373ffffffffffffffffffffffffffffffffffffffff167f7a3017c55930d6934efded16718ca3ffd93ac45c3502987d4735db4f9817afb583600660003373ffffffffffffffffffffffffffffffffffffffff1673ffffffffffffffffffffffffffffffffffffffff1681526020019081526020016000206001018e8e8e8e8e8e8e8e604051808b8152602001806020018060200180602001806020018a8152602001891515151581526020018881526020018781526020018060200186810386528f818154600181600116156101000203166002900481526020019150805460018160011615610100020316600290048015614c965780601f10614c6b57610100808354040283529160200191614c96565b820191906000526020600020905b815481529060010190602001808311614c7957829003601f168201915b505086810385528e818151815260200191508051906020019080838360005b83811015614cd0578082015181840152602081019050614cb5565b50505050905090810190601f168015614cfd5780820380516001836020036101000a031916815260200191505b5086810384528d818151815260200191508051906020019080838360005b83811015614d36578082015181840152602081019050614d1b565b50505050905090810190601f168015614d635780820380516001836020036101000a031916815260200191505b5086810383528c818151815260200191508051906020019080838360005b83811015614d9c578082015181840152602081019050614d81565b50505050905090810190601f168015614dc95780820380516001836020036101000a031916815260200191505b50868103825287818151815260200191508051906020019080838360005b83811015614e02578082015181840152602081019050614de7565b50505050905090810190601f168015614e2f5780820380516001836020036101000a031916815260200191505b509f5050505050505050505050505050505060405180910390a25050505050505050505050565b6000809054906101000a900473ffffffffffffffffffffffffffffffffffffffff1673ffffffffffffffffffffffffffffffffffffffff163373ffffffffffffffffffffffffffffffffffffffff16141515614eb157600080fd5b614eba81615962565b50565b614ec5615a5c565b60008060149054906101000a900460ff16151515614ee257600080fd5b60028054905084101515614ef557600080fd5b600284815481101515614f0457fe5b90600052602060002090600b020161016060405190810160405290816000820160009054906101000a900473ffffffffffffffffffffffffffffffffffffffff1673ffffffffffffffffffffffffffffffffffffffff1673ffffffffffffffffffffffffffffffffffffffff168152602001600182018054600181600116156101000203166002900480601f01602080910402602001604051908101604052809291908181526020018280546001816001161561010002031660029004801561500e5780601f10614fe35761010080835404028352916020019161500e565b820191906000526020600020905b815481529060010190602001808311614ff157829003601f168201915b50505050508152602001600282018054600181600116156101000203166002900480601f0160208091040260200160405190810160405280929190818152602001828054600181600116156101000203166002900480156150b05780601f10615085576101008083540402835291602001916150b0565b820191906000526020600020905b81548152906001019060200180831161509357829003601f168201915b50505050508152602001600382018054600181600116156101000203166002900480601f0160208091040260200160405190810160405280929190818152602001828054600181600116156101000203166002900480156151525780601f1061512757610100808354040283529160200191615152565b820191906000526020600020905b81548152906001019060200180831161513557829003601f168201915b50505050508152602001600482018054600181600116156101000203166002900480601f0160208091040260200160405190810160405280929190818152602001828054600181600116156101000203166002900480156151f45780601f106151c9576101008083540402835291602001916151f4565b820191906000526020600020905b8154815290600101906020018083116151d757829003601f168201915b5050505050815260200160058201548152602001600682015481526020016007820160009054906101000a900460ff161515151581526020016008820154815260200160098201548152602001600a82018054600181600116156101000203166002900480601f0160208091040260200160405190810160405280929190818152602001828054600181600116156101000203166002900480156152d95780601f106152ae576101008083540402835291602001916152d9565b820191906000526020600020905b8154815290600101906020018083116152bc57829003601f168201915b50505050508152505091506000831115156152f357600080fd5b60028481548110151561530257fe5b90600052602060002090600b0201600501548311158015615343575060028481548110151561532d57fe5b90600052602060002090600b0201600801548310155b80156153a1575061539d60028581548110151561535c57fe5b90600052602060002090600b02016006015460028681548110151561537d57fe5b90600052602060002090600b02016005015461592d90919063ffffffff16565b8311155b15156153ac57600080fd5b6002848154811015156153bb57fe5b90600052602060002090600b020160000160009054906101000a900473ffffffffffffffffffffffffffffffffffffffff1673ffffffffffffffffffffffffffffffffffffffff163373ffffffffffffffffffffffffffffffffffffffff161415151561542757600080fd5b4260028581548110151561543757fe5b90600052602060002090600b02016009015411151561545557600080fd5b6154888360028681548110151561546857fe5b90600052602060002090600b02016006015461594690919063ffffffff16565b60028581548110151561549757fe5b90600052602060002090600b0201600601819055506039600660003373ffffffffffffffffffffffffffffffffffffffff1673ffffffffffffffffffffffffffffffffffffffff16815260200190815260200160002060080154111515615501576003905061554a565b600660003373ffffffffffffffffffffffffffffffffffffffff1673ffffffffffffffffffffffffffffffffffffffff16815260200190815260200160002060080154603c0390505b61559f81600660003373ffffffffffffffffffffffffffffffffffffffff1673ffffffffffffffffffffffffffffffffffffffff1681526020019081526020016000206008015461594690919063ffffffff16565b600660003373ffffffffffffffffffffffffffffffffffffffff1673ffffffffffffffffffffffffffffffffffffffff168152602001908152602001600020600801819055506002848154811015156155f457fe5b90600052602060002090600b020160000160009054906101000a900473ffffffffffffffffffffffffffffffffffffffff1673ffffffffffffffffffffffffffffffffffffffff16843373ffffffffffffffffffffffffffffffffffffffff167f37451c99cb38ea4eb93da0cf84650a297cea632343216e2df30e41a4058dac89600660003373ffffffffffffffffffffffffffffffffffffffff1673ffffffffffffffffffffffffffffffffffffffff1681526020019081526020016000206001016006600060028b8154811015156156ca57fe5b90600052602060002090600b020160000160009054906101000a900473ffffffffffffffffffffffffffffffffffffffff1673ffffffffffffffffffffffffffffffffffffffff1673ffffffffffffffffffffffffffffffffffffffff1681526020019081526020016000206001014260028b81548110151561574957fe5b90600052602060002090600b02016004018a896040518080602001806020018781526020018060200186815260200185815260200184810384528a8181546001816001161561010002031660029004815260200191508054600181600116156101000203166002900480156157ff5780601f106157d4576101008083540402835291602001916157ff565b820191906000526020600020905b8154815290600101906020018083116157e257829003601f168201915b50508481038352898181546001816001161561010002031660029004815260200191508054600181600116156101000203166002900480156158825780601f1061585757610100808354040283529160200191615882565b820191906000526020600020905b81548152906001019060200180831161586557829003601f168201915b50508481038252878181546001816001161561010002031660029004815260200191508054600181600116156101000203166002900480156159055780601f106158da57610100808354040283529160200191615905565b820191906000526020600020905b8154815290600101906020018083116158e857829003601f168201915b5050995050505050505050505060405180910390a450505050565b6000600180549050905090565b600082821115151561593b57fe5b818303905092915050565b6000818301905082811015151561595957fe5b80905092915050565b600073ffffffffffffffffffffffffffffffffffffffff168173ffffffffffffffffffffffffffffffffffffffff161415151561599e57600080fd5b8073ffffffffffffffffffffffffffffffffffffffff166000809054906101000a900473ffffffffffffffffffffffffffffffffffffffff1673ffffffffffffffffffffffffffffffffffffffff167f8be0079c531659141344cd1fd0a4f28419497f9722a3daafe3b4186f6b6457e060405160405180910390a3806000806101000a81548173ffffffffffffffffffffffffffffffffffffffff021916908373ffffffffffffffffffffffffffffffffffffffff16021790555050565b61016060405190810160405280600073ffffffffffffffffffffffffffffffffffffffff1681526020016060815260200160608152602001606081526020016060815260200160008152602001600081526020016000151581526020016000815260200160008152602001606081525090565b61014060405190810160405280600073ffffffffffffffffffffffffffffffffffffffff168152602001606081526020016060815260200160608152602001606081526020016060815260200160008152602001600015158152602001600015158152602001600081525090565b828054600181600116156101000203166002900490600052602060002090601f016020900481019282601f10615b7e57805160ff1916838001178555615bac565b82800160010185558215615bac579182015b82811115615bab578251825591602001919060010190615b90565b5b509050615bb99190615cb0565b5090565b828054600181600116156101000203166002900490600052602060002090601f016020900481019282601f10615bfe57805160ff1916838001178555615c2c565b82800160010185558215615c2c579182015b82811115615c2b578251825591602001919060010190615c10565b5b509050615c399190615cb0565b5090565b61016060405190810160405280600073ffffffffffffffffffffffffffffffffffffffff1681526020016060815260200160608152602001606081526020016060815260200160008152602001600081526020016000151581526020016000815260200160008152602001606081525090565b615cd291905b80821115615cce576000816000905550600101615cb6565b5090565b905600a165627a7a72305820d1c2fb6acecc9106dee792bba8dc545bcc989371830449e7802664b329345c630029",
  "source": "pragma solidity ^0.4.24;\r\n    \r\nimport 'openzeppelin-solidity/contracts/lifecycle/Pausable.sol';\r\nimport 'openzeppelin-solidity/contracts/math/SafeMath.sol';\r\n\r\n/**\r\n* @title Kadena\r\n* @dev Is a platform that Hospitals could utilize to connect & form alliance with other hospitals.\r\n* Registered Hopitals in Kadena could call help & post/borrow essential items that they need at the moment or will be needing in the near future.\r\n* Registered Hospital that has extra essential items could also post/give items that they think will be helpful to other hospitals.\r\n* Every registered hospital in Kadena has a rating that corresponds to their actions on the platform.\r\n* Some features/functions will be unavailable to a registered hospital if their rating drops a certain point.\r\n*/\r\n\r\ncontract Kadena is Pausable {\r\n\tusing SafeMath for uint;\r\n\r\n\r\n\tstruct Hospital {\r\n\t    address owner;\r\n\t    string name;\r\n\t    string country;\r\n\t    string city;\r\n\t    string ipfs;\r\n\t    string status;\r\n\t    uint time;\r\n\t    bool pending;\r\n\t    bool registered;\r\n\t    uint rating;\r\n\t}\r\n\t\r\n\r\n\tstruct NeedHelp {\r\n\t\taddress owner;\r\n\t\tstring hospital;\r\n\t\tstring title;\r\n\t\tstring category;\r\n\t\tstring item;\r\n\t\tuint amount;\r\n\t\tuint committed;\r\n\t\tbool borrow;\r\n\t\tuint minimum;\r\n\t\tuint endDate;\r\n\t\tstring ipfs;\r\n\t}\r\n\t\r\n\tstruct GiveHelp {\r\n\t\taddress owner;\r\n\t\tstring hospital;\r\n\t\tstring title;\r\n\t\tstring category;\r\n\t\tstring item;\r\n\t\tuint amount;\r\n\t\tuint committed;\r\n\t\tbool borrow;\r\n\t\tuint minimum;\r\n\t\tuint endDate;\r\n\t\tstring ipfs;\r\n\t\r\n\t}\r\n\t\r\n    Hospital[] private hospital;\r\n\tNeedHelp[] private needHelp;\r\n\tGiveHelp[] private giveHelp;\r\n\t\r\n\tmapping(address => uint256[]) private neededEvents;\r\n\tmapping(address => uint256[]) private givenEvents;\r\n\tmapping(address => Hospital) private registered;\r\n\r\n\r\n\t\t\r\n    event RegisterHospital(address indexed owner, string hospitalName, string country, string city, string ipfs, uint time, bool pending, bool registered);\t\r\n\t\r\n\tevent Registration(address Admin, address indexed applicant, string registeredAs, string status, uint time, bool pending, bool indexed registrationStatus, uint rating);\r\n\r\n\tevent NeedAHand(address indexed ownerNeed, uint eventId, string hospital,string title, string category,string item, uint amount, bool borrow, uint minimumAmount, uint endDate, string ipfs);\r\n\tevent GiveAHand(address indexed ownerGive, uint eventId, string hospital,string title, string category,string item, uint amount, bool borrow, uint minimumAmount, uint endDate, string ipfs);\r\n\r\n    event Pledged(address indexed pledgedBy, string sender , string receiver,uint date, uint indexed eventId, string item, uint committed, address indexed pledgeTo, uint addedRating);\r\n    event Taken(address indexed takenBy, string receiver , string sender,uint date, uint indexed eventId,string item,uint received, address indexed tookFrom, uint addedRating);\r\n\r\n\r\n    /**\r\n\t* @dev Function Request Hospital Registration.\r\n\t* @param _hospitalName string - Name of Hospital.\r\n\t* @param _country string - The country where the hospital is located.\r\n\t* @param _city string - The city where the hospital is located.\r\n\t* @param _ipfs - The IPFS hash containing additional information about the Hospital.\r\n\r\n\t* @notice Requires that the contract is not paused.\r\n\t* @notice Requires that the applicant address is not yet registered & does not have a pending registration.\r\n\t*/\r\n    \r\n\tfunction registerHospital(\r\n\t\tstring _hospitalName,\r\n\t    string _country,\r\n\t    string _city,\r\n\t    string _ipfs\r\n    \t)\r\n        whenNotPaused()\r\n\t\tpublic\r\n\t\t\r\n\t{\r\n\t    require(registered[msg.sender].registered == false && registered[msg.sender].pending == false, \"You are Registered or have pending registration\");\r\n\t    \r\n\t\tHospital memory _registerHospital = Hospital({\r\n\t\t\towner: msg.sender,\r\n\t\t\tname: _hospitalName,\r\n\t\t    country: _country,\r\n\t\t\tcity: _city,\r\n\t\t\tipfs: _ipfs,\r\n\t\t\tstatus: \"Unregistered\",\r\n\t\t\ttime: now,\r\n\t\t\tpending: true,\r\n\t\t\tregistered: false,\r\n\t\t\trating:0\r\n\t\t\t\r\n\t\t});\r\n\t\tuint _hospitalID = hospital.push(_registerHospital).sub(1);\r\n\t\tregistered[msg.sender].owner = msg.sender;\r\n\t\tregistered[msg.sender].name = _hospitalName;\r\n\t\tregistered[msg.sender].country = _country;\r\n\t\tregistered[msg.sender].city = _city;\r\n\t\tregistered[msg.sender].ipfs = _ipfs;\r\n\t\tregistered[msg.sender].status = \"Unregistered\";\r\n\t\tregistered[msg.sender].time = now;\r\n\t\tregistered[msg.sender].pending = true;\r\n\t\tregistered[msg.sender].registered = false;\r\n\t\temit RegisterHospital(msg.sender, _hospitalName, _country, _city, _ipfs, now, true, false);\r\n\t}\r\n\t\r\n\t/**\r\n\t* @dev Function to Accept/Reject or Revoke Registration .\r\n\t* @param _applicant address - The Ethereum Address of the applicant.\r\n\t* @param _accepted - If true Ethereum Address Registration is accepted.\r\n\r\n\t* @notice Requires that the contract is not paused.\r\n\t* @notice Requires that the approver is the owner of contract.\r\n\t* @notice Requires that the applicant address does not have a pending registration.\r\n\t*/\r\n\t\r\n    function register(address _applicant, bool _accepted)\r\n\t\tpublic\r\n\t\tonlyOwner()\r\n\t\twhenNotPaused()\r\n\r\n\t{\r\n\t    require(registered[_applicant].pending , \"Status not Pending\");\r\n\t    if(_accepted){\r\n        registered[_applicant].status = \"Registered\";\r\n\t\tregistered[_applicant].time = now;\r\n        registered[_applicant].pending = false;\r\n        registered[_applicant].registered = true;\r\n        registered[_applicant].rating = 35;\r\n\t    }\r\n        \r\n        else{\r\n        registered[_applicant].status = \"Rejected\";\r\n\t\tregistered[_applicant].time = now;\r\n        registered[_applicant].pending = false;\r\n        registered[_applicant].registered = false;\r\n  \r\n        }\r\n        emit Registration(msg.sender, registered[_applicant].owner,registered[_applicant].name,registered[_applicant].status,now,registered[_applicant].pending,registered[_applicant].registered,registered[_applicant].rating);\r\n\t}\r\n\t\r\n\t/**\r\n\t* @dev Function to show information about the hospital.\r\n\t* @param _owner address - The Ethereum Address of the hospital.\r\n\t* @return _hospitalName string - The name of the hospital.\r\n\t* @return _country string - The country where the hospital is located.\r\n\t* @return _city string - The city where the hospital is located.\r\n\t* @return _ipfs string - The IPFS hash containing additional information about event.\r\n\t* @return _pending bool - If true account has a pending registration.\r\n\t* @return _registered bool - If true account is registered.\r\n\t* @return _time uint - time of registration.\r\n\t* @return _rating uint - The rating of the account.\r\n\r\n\t*/\r\n\t\r\n\r\n\tfunction getHospitalStatus(address _owner)\r\n\t    public\r\n\t    view\r\n\t    returns(\r\n\t        string _hospitalName,\r\n\t        string _country,\r\n\t        string _city,\r\n\t        string _ipfs,\r\n\t        bool _pending, \r\n\t        bool _registered,\r\n\t        uint _time,\r\n\t        uint _rating\r\n\t    ){\r\n\t   Hospital memory _registerhospital = registered[_owner];\r\n\t    return(\r\n\r\n\t\t    _registerhospital.name,\r\n\t\t\t_registerhospital.country,\r\n\t\t\t_registerhospital.city,\r\n\t\t\t_registerhospital.ipfs,\r\n\t\t\t_registerhospital.pending,\r\n\t\t\t_registerhospital.registered,\r\n\t\t\t_registerhospital.time,\r\n\t\t\t_registerhospital.rating\r\n\t\t\t\r\n\t\t);\r\n\t}\r\n\t\r\n\t\r\n    /**\r\n\t* @dev Function creates the event to Call For Help.\r\n\t* @param _title string - The title of the event.\r\n\t* @param _category string - The category of the item.\r\n\t* @param _item string - The name of item.\r\n\t* @param _amount uint - The total amount of items needed.\r\n\t* @param _borrow bool - True if the items is expected to be returned in the future.\r\n\t* @param _minimumAmount - minimum amount to pledge.\r\n\t* @param _endDate - End date of the event.\r\n\t* @param _ipfs - The IPFS hash containing additional information about the event.\r\n\r\n\t* @notice Requires that the contract is not paused.\r\n    * @notice Requires that the sender is registered.\r\n\t* @notice Requires that the event time is in the future.\r\n\t* @notice Requires that the sender rating is greater than or equal to 20.\r\n    * @notice Requires that the amount is greater than 0.\r\n\t*/\r\n\t\r\n\tfunction callForHelp(\r\n\t\tstring _title,\r\n\t\tstring _category,\r\n\t\tstring _item,\r\n\t\tuint _amount,\r\n\t\tbool _borrow,\r\n\t\tuint _minimumAmount,\r\n\t\tuint _endDate,\r\n\t\tstring _ipfs\r\n\t\r\n\t)\r\n    whenNotPaused()\r\n\t\tpublic\r\n\t{\r\n\t    require(registered[msg.sender].registered == true && registered[msg.sender].pending == false, \"You are Not Registered\");\r\n\t    require(now < _endDate);\r\n\t    require(registered[msg.sender].rating > 20);\r\n\t    require(_amount > 0 && _minimumAmount <= _amount);\r\n   \r\n\t\tNeedHelp memory _event = NeedHelp({\r\n\t\t\towner: msg.sender,\r\n\t\t\thospital: registered[msg.sender].name,\r\n\t\t\ttitle: _title,\r\n\t\t\tcategory: _category,\r\n\t\t\titem: _item,\r\n\t\t\tamount: _amount,\r\n\t\t\tcommitted:0,\r\n\t\t\tborrow: _borrow,\r\n\t\t\tminimum: _minimumAmount,\r\n\t\t\tendDate: _endDate,\r\n\t\t\tipfs: _ipfs\r\n\t\t\t\r\n\t\t\t\r\n\t\t});\r\n      \tuint _eventId = needHelp.push(_event).sub(1);\r\n\t\tneededEvents[msg.sender].push(_eventId);\r\n\t\t\r\n\t\tif(registered[msg.sender].rating >= 25){\r\n\t\t    uint _subtractedRating = 5;\r\n\t\t    \r\n\t\t}\r\n\t\telse {\r\n\t\t    _subtractedRating = registered[msg.sender].rating - 20;\r\n\t\t   \r\n\t\t}\r\n\t    \r\n\t\tregistered[msg.sender].rating = registered[msg.sender].rating.sub(_subtractedRating);\r\n\t\temit NeedAHand(msg.sender, _eventId,registered[msg.sender].name,_title,_category,_item, _amount, _borrow,_minimumAmount,_endDate,_ipfs); \r\n\r\n\t}\r\n\t\r\n\t/**\r\n\t* @dev Function creates the event to Provide Assistance.\r\n\t* @param _title string - The title of the event.\r\n\t* @param _category string - The category of the item.\r\n\t* @param _item string - The name of item.\r\n\t* @param _amount uint - The total amount of items to be given.\r\n\t* @param _borrow bool - True if the items is expected to be returned in the future.\r\n\t* @param _minimumAmount - minimum amount to take.\r\n\t* @param _endDate - End date of the event.\r\n\t* @param _ipfs - The IPFS hash containing additional information about the event.\r\n\r\n\t* @notice Requires that the contract is not paused.\r\n    * @notice Requires that the sender is registered.\r\n\t* @notice Requires that the event time is in the future.\r\n    * @notice Requires that the amount is greater than 0.\r\n\t*/\r\n\t\r\n\tfunction provideAssistance(\r\n\t\tstring _title,\r\n\t\tstring _category,\r\n\t\tstring _item,\r\n\t\tuint _amount,\r\n\t\tbool _borrow,\r\n\t\tuint _minimumAmount,\r\n\t\tuint _endDate,\r\n\t\tstring _ipfs\r\n\t\r\n\t)\r\n    whenNotPaused()\r\n\t\tpublic\r\n\t{\r\n\t    require(registered[msg.sender].registered == true && registered[msg.sender].pending == false, \"You are Not Registered\");\r\n\t    require(now < _endDate);\r\n\t    require(_amount > 0 && _minimumAmount <= _amount);\r\n   \r\n\t\tGiveHelp memory _event = GiveHelp({\r\n\t\t\towner: msg.sender,\r\n\t\t\thospital: registered[msg.sender].name,\r\n\t\t\ttitle: _title,\r\n\t\t\tcategory: _category,\r\n\t\t\titem: _item,\r\n\t\t\tamount: _amount,\r\n\t\t\tcommitted:_amount,\r\n\t\t\tborrow: _borrow,\r\n\t\t    minimum: _minimumAmount,\r\n\t\t\tendDate: _endDate,\r\n\t\t\tipfs: _ipfs\r\n\t\t\t\r\n\t\t});\r\n      \tuint _eventId = giveHelp.push(_event).sub(1);\r\n\t\tgivenEvents[msg.sender].push(_eventId);\r\n\t\tif(registered[msg.sender].rating < 55){\r\n\t\t    uint _addedRating = 5;\r\n\t\t    \r\n\t\t}\r\n\t\telse {\r\n\t\t    _addedRating = 60 - registered[msg.sender].rating;\r\n\t\t    \r\n\t\t}\r\n\t    \r\n\t\tif(registered[msg.sender].rating < 60){\r\n\t\tregistered[msg.sender].rating = registered[msg.sender].rating.add(_addedRating);}\r\n\t\t\r\n\t\temit GiveAHand(msg.sender, _eventId,registered[msg.sender].name,_title,_category,_item, _amount, _borrow,_minimumAmount,_endDate,_ipfs);  \r\n  \r\n\t}\r\n\t\r\n\t/**\r\n\t* @dev Function to show information about give assitance event.\r\n\t* @param _id uint - Event ID.\r\n\t* @return title string - The title of the event.\r\n\t* @return category string - The category of needed item.\r\n\t* @return item string - The name of the item.\r\n\t* @return amount uint - The total amount of items.\r\n\t* @return committed uint - The amount of items left.\r\n\t* @return borrow bool - True if the item is to be returned in the future.\r\n\t* @return startDate uint - Start date of the event.\r\n\t* @return endDate uint - End date of the event.\r\n\t* @return ipfs string - The IPFS hash containing additional information about event.\r\n\t* @return owner address - The owner of the event.\r\n\r\n\t* @notice Requires that the events exist.\r\n\t*/\r\n\t\r\n\tfunction provideAssistanceDetails(uint _id)\r\n\t\tpublic\r\n\t\tview\r\n\t    returns(\r\n\t\t    string title,\r\n\t\t    string category,\r\n\t    \tstring item,\r\n\t    \tuint amount,\r\n\t    \tuint committed,\r\n\t    \tbool borrow,\r\n\t    \tuint minimum,\r\n\t    \tuint endDate,\r\n\t    \tstring ipfs,\r\n\t    \taddress owner\r\n    \t) {\r\n\t    require(_id < giveHelp.length);\r\n\t    GiveHelp memory _event = giveHelp[_id];\r\n\t\treturn(\r\n\t\t\t_event.title,\r\n\t\t\t_event.category,\r\n\t\t\t_event.item,\r\n\t\t\t_event.amount,\r\n\t\t\t_event.committed,\r\n\t\t\t_event.borrow,\r\n\t\t\t_event.minimum,\r\n\t\t\t_event.endDate,\r\n\t\t\t_event.ipfs,\r\n\t\t\t_event.owner\r\n\t\t);\r\n\t}\r\n\t\r\n    /**\r\n\t* @dev Function to show information about call for help event.\r\n\t* @param _id uint - Event ID.\r\n\t* @return title string - The title of the event.\r\n\t* @return category string - The category of needed item.\r\n\t* @return item string - The name of the item.\r\n\t* @return amount uint - The amount of items needed.\r\n\t* @return commited uint - The amount of items currently committed.\r\n\t* @return borrow bool - True if the item is to be returned in the future.\r\n\t* @return startDate uint - Start date of the event.\r\n\t* @return endDate uint - End date of the event.\r\n\t* @return ipfs string - The IPFS hash containing additional information about event.\r\n\t* @return owner address - The owner of the event.\r\n\r\n\t* @notice Requires that the events exist.\r\n\t*/\r\n\t\r\n\tfunction callForHelpDetails(uint _id)\r\n\t\tpublic\r\n\t\tview\r\n\t    returns(\r\n\t\t    string title,\r\n\t\t    string category,\r\n\t    \tstring item,\r\n\t    \tuint amount,\r\n\t    \tuint committed,\r\n\t    \tbool borrow,\r\n\t    \tuint minumum,\r\n\t    \tuint endDate,\r\n\t    \tstring ipfs,\r\n\t    \taddress owner\r\n    \t) {\r\n\t    require(_id < needHelp.length);\r\n\t    NeedHelp memory _event = needHelp[_id];\r\n\t\treturn(\r\n\t\t\t_event.title,\r\n\t\t\t_event.category,\r\n\t\t\t_event.item,\r\n\t\t\t_event.amount,\r\n\t\t\t_event.committed,\r\n\t\t\t_event.borrow,\r\n\t\t\t_event.minimum,\r\n\t\t\t_event.endDate,\r\n\t\t\t_event.ipfs,\r\n\t\t\t_event.owner\r\n\t\t);\r\n\t}\r\n\t\r\n\t/**\r\n\t* @dev Function to give item to the needed asstistance pool.\r\n\t* @param _eventId - The ID of the Call for Help Event.\r\n\t* @param _commit - The amount of the item to commit.\r\n\t\r\n    * @notice Requires that the event exist.\r\n    * @notice Requires that the commit is greater than 0.\r\n    * @notice Requires that the amount of items to give is <= total needed items in the pool.\r\n    * @notice Requires that the amount of items to give is <= current needed items in the pool.\r\n    * @notice Requires that the giver is not the creator of the event.\r\n    * @notice Requires that the events hasn't ended yet.\r\n\t*/\r\n\t\r\n\tfunction pledge(uint _eventId, uint _commit)\r\n\t    whenNotPaused()\r\n\t\tpublic\r\n\t\t\r\n\t{\r\n\t    require(_eventId < needHelp.length);\r\n\t\tNeedHelp memory _event = needHelp[_eventId];\r\n\t\t\r\n\t\trequire(_commit > 0);\r\n\t\trequire(_commit <= needHelp[_eventId].amount && _commit >= needHelp[_eventId].minimum && _commit <= needHelp[_eventId].amount.sub(needHelp[_eventId].committed));\r\n\t\trequire(msg.sender != needHelp[_eventId].owner);\r\n\t\trequire(needHelp[_eventId].endDate > now);\r\n\t\t\r\n\t\t\r\n\t\tneedHelp[_eventId].committed = needHelp[_eventId].committed.add(_commit);\r\n\t\tif (registered[msg.sender].rating <= 57){\r\n\t\t    uint _addedRating = 3;\r\n\t\r\n\t\t}\r\n\t\telse{\r\n\t\t    _addedRating = 60 - registered[msg.sender].rating;\r\n\t\t}\r\n\t\tregistered[msg.sender].rating = registered[msg.sender].rating.add(_addedRating);\r\n\t\temit Pledged(msg.sender,registered[msg.sender].name, registered[needHelp[_eventId].owner].name,now, _eventId,needHelp[_eventId].item, _commit, needHelp[_eventId].owner, _addedRating);\r\n\t}\r\n\t\r\n\t\r\n\t/**\r\n\t* @dev Function to take item from the given asstistance pool.\r\n\t* @param _eventId - The ID of the Assistance Event.\r\n\t* @param _take - The amount of the item to take.\r\n\t\r\n    * @notice Requires that the event exist.\r\n    * @notice Requires that the sender rating is greater than or equal to 10.\r\n    * @notice Requires that the amount to take is greater than 0.\r\n    * @notice Requires that the amount to take is greater than minimum.\r\n    * @notice Requires that the amount of items to take is <= current available items in the pool.\r\n    * @notice Requires that the taker is not the creator of the event.\r\n    * @notice Requires that the events hasn't ended yet.\r\n\t*/\r\n\t\r\n\tfunction take(uint _eventId, uint _take)\r\n\t    whenNotPaused()\r\n\t\tpublic\r\n\t\t\r\n\t{\r\n\t    require(_eventId < giveHelp.length);\r\n\t  \r\n\t\tGiveHelp memory _event = giveHelp[_eventId];\r\n\t\t\r\n\t\trequire(registered[msg.sender].rating > 10);\r\n\t    require(_take > 0 && _take >= giveHelp[_eventId].minimum && _take <= giveHelp[_eventId].committed);\r\n\t\trequire(msg.sender != giveHelp[_eventId].owner);\r\n\t    require(giveHelp[_eventId].endDate > now);\r\n\t\t\r\n\t\tgiveHelp[_eventId].committed = giveHelp[_eventId].committed.sub(_take);\r\n\t\r\n\t\tif (registered[msg.sender].rating >= 13){\r\n\t\t    uint _subtractRating = 3;\r\n\t\t}\r\n\t\t\r\n\t\telse{\r\n\t\t    _subtractRating = registered[msg.sender].rating - 10;\r\n\t\t}\r\n\t\t\r\n\t\tregistered[msg.sender].rating = registered[msg.sender].rating.sub(_subtractRating);\r\n\t\temit Taken(msg.sender,registered[msg.sender].name, registered[giveHelp[_eventId].owner].name,now, _eventId,giveHelp[_eventId].item,_take, giveHelp[_eventId].owner, _subtractRating);\r\n\t}\r\n\t\r\n\r\n\r\n\t/**\r\n\t* @dev Function to show events of the specified address.\r\n\t* @param _owner address - The address to query the events of.\r\n\t* @return uint[] - Array of events IDs.\r\n\t*/\r\n\tfunction needsOf(address _owner) public view returns(uint[]) {\r\n\t\treturn neededEvents[_owner];\r\n\t}\r\n\t\r\n\tfunction assistsOf(address _owner) public view returns(uint[]) {\r\n\t\treturn givenEvents[_owner];\r\n\t}\r\n\r\n\r\n\t/**\r\n\t* @dev Function returns number of all events.\r\n\t* @return uint - Number of events.\r\n\t*/\r\n\tfunction getNeededCount() public view returns(uint) {\r\n\t\treturn needHelp.length;\r\n\t}\r\n\t\r\n\tfunction getAssistCount() public view returns(uint) {\r\n\t\treturn giveHelp.length;\r\n\t}\r\n\t\r\n\tfunction getHospitalCount() public view returns(uint) {\r\n\t\treturn hospital.length;\r\n\t}\r\n\t\r\n}",
  "sourcePath": "C:/Users/jfpad/kadena/contracts/Kadena.sol",
  "compiler": {
    "name": "solc",
    "version": "0.4.24+commit.e67f0147.Emscripten.clang"
  },
  "schemaVersion": "3.0.20",
  "updatedAt": "2020-05-01T11:06:12.272Z",
  "networkType": "ethereum",
  "devdoc": {
    "methods": {
      "callForHelp(string,string,string,uint256,bool,uint256,uint256,string)": {
        "details": "Function creates the event to Call For Help.\r",
        "params": {
          "_amount": "uint - The total amount of items needed.\r",
          "_borrow": "bool - True if the items is expected to be returned in the future.\r",
          "_category": "string - The category of the item.\r",
          "_endDate": "- End date of the event.\r",
          "_ipfs": "- The IPFS hash containing additional information about the event.\r",
          "_item": "string - The name of item.\r",
          "_minimumAmount": "- minimum amount to pledge.\r",
          "_title": "string - The title of the event.\r"
        }
      },
      "callForHelpDetails(uint256)": {
        "details": "Function to show information about call for help event.\r",
        "params": {
          "_id": "uint - Event ID.\r"
        },
        "return": "title string - The title of the event.\rcategory string - The category of needed item.\ritem string - The name of the item.\ramount uint - The amount of items needed.\rcommited uint - The amount of items currently committed.\rborrow bool - True if the item is to be returned in the future.\rstartDate uint - Start date of the event.\rendDate uint - End date of the event.\ripfs string - The IPFS hash containing additional information about event.\rowner address - The owner of the event.\r"
      },
      "getHospitalStatus(address)": {
        "details": "Function to show information about the hospital.\r",
        "params": {
          "_owner": "address - The Ethereum Address of the hospital.\r"
        },
        "return": "_hospitalName string - The name of the hospital.\r_country string - The country where the hospital is located.\r_city string - The city where the hospital is located.\r_ipfs string - The IPFS hash containing additional information about event.\r_pending bool - If true account has a pending registration.\r_registered bool - If true account is registered.\r_time uint - time of registration.\r_rating uint - The rating of the account.\r"
      },
      "getNeededCount()": {
        "details": "Function returns number of all events.\r",
        "return": "uint - Number of events.\r"
      },
      "needsOf(address)": {
        "details": "Function to show events of the specified address.\r",
        "params": {
          "_owner": "address - The address to query the events of.\r"
        },
        "return": "uint[] - Array of events IDs.\r"
      },
      "pause()": {
        "details": "called by the owner to pause, triggers stopped state"
      },
      "pledge(uint256,uint256)": {
        "details": "Function to give item to the needed asstistance pool.\r",
        "params": {
          "_commit": "- The amount of the item to commit.\r",
          "_eventId": "- The ID of the Call for Help Event.\r"
        }
      },
      "provideAssistance(string,string,string,uint256,bool,uint256,uint256,string)": {
        "details": "Function creates the event to Provide Assistance.\r",
        "params": {
          "_amount": "uint - The total amount of items to be given.\r",
          "_borrow": "bool - True if the items is expected to be returned in the future.\r",
          "_category": "string - The category of the item.\r",
          "_endDate": "- End date of the event.\r",
          "_ipfs": "- The IPFS hash containing additional information about the event.\r",
          "_item": "string - The name of item.\r",
          "_minimumAmount": "- minimum amount to take.\r",
          "_title": "string - The title of the event.\r"
        }
      },
      "provideAssistanceDetails(uint256)": {
        "details": "Function to show information about give assitance event.\r",
        "params": {
          "_id": "uint - Event ID.\r"
        },
        "return": "title string - The title of the event.\rcategory string - The category of needed item.\ritem string - The name of the item.\ramount uint - The total amount of items.\rcommitted uint - The amount of items left.\rborrow bool - True if the item is to be returned in the future.\rstartDate uint - Start date of the event.\rendDate uint - End date of the event.\ripfs string - The IPFS hash containing additional information about event.\rowner address - The owner of the event.\r"
      },
      "register(address,bool)": {
        "details": "Function to Accept/Reject or Revoke Registration .\r",
        "params": {
          "_accepted": "- If true Ethereum Address Registration is accepted.\r",
          "_applicant": "address - The Ethereum Address of the applicant.\r"
        }
      },
      "registerHospital(string,string,string,string)": {
        "details": "Function Request Hospital Registration.\r",
        "params": {
          "_city": "string - The city where the hospital is located.\r",
          "_country": "string - The country where the hospital is located.\r",
          "_hospitalName": "string - Name of Hospital.\r",
          "_ipfs": "- The IPFS hash containing additional information about the Hospital.\r"
        }
      },
      "renounceOwnership()": {
        "details": "Allows the current owner to relinquish control of the contract."
      },
      "take(uint256,uint256)": {
        "details": "Function to take item from the given asstistance pool.\r",
        "params": {
          "_eventId": "- The ID of the Assistance Event.\r",
          "_take": "- The amount of the item to take.\r"
        }
      },
      "transferOwnership(address)": {
        "details": "Allows the current owner to transfer control of the contract to a newOwner.",
        "params": {
          "_newOwner": "The address to transfer ownership to."
        }
      },
      "unpause()": {
        "details": "called by the owner to unpause, returns to normal state"
      }
    },
    "title": "Kadena\r"
  },
  "userdoc": {
    "methods": {
      "callForHelp(string,string,string,uint256,bool,uint256,uint256,string)": {
        "notice": "Requires that the contract is not paused.\rRequires that the sender is registered.\rRequires that the event time is in the future.\rRequires that the sender rating is greater than or equal to 20.\rRequires that the amount is greater than 0.\r"
      },
      "callForHelpDetails(uint256)": {
        "notice": "Requires that the events exist.\r"
      },
      "pledge(uint256,uint256)": {
        "notice": "Requires that the event exist.\rRequires that the commit is greater than 0.\rRequires that the amount of items to give is <= total needed items in the pool.\rRequires that the amount of items to give is <= current needed items in the pool.\rRequires that the giver is not the creator of the event.\rRequires that the events hasn't ended yet.\r"
      },
      "provideAssistance(string,string,string,uint256,bool,uint256,uint256,string)": {
        "notice": "Requires that the contract is not paused.\rRequires that the sender is registered.\rRequires that the event time is in the future.\rRequires that the amount is greater than 0.\r"
      },
      "provideAssistanceDetails(uint256)": {
        "notice": "Requires that the events exist.\r"
      },
      "register(address,bool)": {
        "notice": "Requires that the contract is not paused.\rRequires that the approver is the owner of contract.\rRequires that the applicant address does not have a pending registration.\r"
      },
      "registerHospital(string,string,string,string)": {
        "notice": "Requires that the contract is not paused.\rRequires that the applicant address is not yet registered & does not have a pending registration.\r"
      },
      "renounceOwnership()": {
        "notice": "Renouncing to ownership will leave the contract without an owner. It will not be possible to call the functions with the `onlyOwner` modifier anymore."
      },
      "take(uint256,uint256)": {
        "notice": "Requires that the event exist.\rRequires that the sender rating is greater than or equal to 10.\rRequires that the amount to take is greater than 0.\rRequires that the amount to take is greater than minimum.\rRequires that the amount of items to take is <= current available items in the pool.\rRequires that the taker is not the creator of the event.\rRequires that the events hasn't ended yet.\r"
      }
    }
  }
}